:020000040800F2
:1000000000000110D5710208AF1F020857610208F5
:1000100091720208917202089172020800000000B9
:10002000000000000000000000000000AD1F0208FA
:10003000AB1F020800000000A91F0208E5810108AB
:10004000917202089172020891720208917202087C
:100050009172020891720208853B0108953B0108E4
:1000600091720208913B01088D3B010811210008A3
:1000700001210008F1200008E1200008CD2000083F
:10008000B9200008A52000089172020891720208A8
:10009000917202089172020891720208893B01086C
:1000A000917202089172020891720208917202081C
:1000B00091720208497F0108397F01089172020894
:1000C00091720208917202089172020891720208FC
:1000D0009172020895210008892100087D210008FD
:1000E000813B010891720208AD200208917202085A
:1000F000357F010891720208257F010891200008D0
:1001000091720208917202089172020891720208BB
:10011000712100086521000891720208917202089D
:100120007D200008692000085520000841200008B3
:100130002D20000891720208917202089172020843
:10014000917202089172020891720208211A020843
:100150001920000805200008F11F00085921000897
:10016000917202089172020891720208917202085B
:10017000917202089172020891720208917202084B
:0801800091720208917202085D
:10018800012380F8453070470D4B0E4A70B50020AA
:100198001C680D4E1368054600219C420AD011B117
:1001A8006DB1136070BDF05C01210133C3F30A0324
:1001B8000D46F2E723460029EED005B1146070BD64
:1001C800547600205076002058760020044B18689A
:1001D800044B1B68984288BF03F50063181A7047E0
:1001E80050760020547600200120704770477047F1
:1001F8002DE9F04F654B664EB3F80AC03468B3F882
:10020800048087B04FEA0C2A05901889B4EB0A0AD3
:100218004FF000024FF0000565EB020BA0FB0A450A
:1002280000FB0B55E00940EA45604FEA084407190E
:100238008E46D8884FEAE51141EB0208A0FB0A4533
:10024800CDE90278B3F8028000FB0B55200A40EA9A
:1002580005604FEAC83410EB04084FEA252141EB4A
:1002680002099A89A2FB0A0102FB0B11C20D42EA9C
:10027800412212F5FA604FEAE15343F10001B0F56B
:10028800FA6FCDE9000171F10001B4465EDA052488
:10029800A2FB040104FB031100FB03F402FB01446D
:1002A800DDE90267A0FB020121444D104FEA30044A
:1002B800361B4FEA900444EA817467EB05078D10FA
:1002C800B8EB040869EB0509DDE9004531484FF052
:1002D800FF31844275EB0101CDE9026723DA40F66C
:1002E800AC5012184FF000014B4102FB03F1A2FB86
:1002F800022303EB4103D900D000101A41EA5271DE
:1003080063EB0101341847EB0105CDE902450B24E5
:10031800A2FB040104FB031149104FEA3000B8EBBB
:10032800000869EB01090AFB0BF3DDE90001AAFBF0
:100338000AAB0BEB430B4FEADA7242EA4B02801A24
:100348004FEAEB7361EB0301CDE90001DCF804101F
:10035800A1FB082301FB0933540D5D1544EAC324AE
:10036800DDE90223A21A65EB03031D46D30B059AA8
:1003780043EA454302B11360BEF1000F02D0009B6F
:10038800CEF8003007B0BDE8F08F00BF1C6C00202D
:100398003036002024FAFFFF4FF4805383827047E1
:1003A8004FF48053838270470346012283F8232049
:1003B80053F8043C143803B118477047BFF34F8F04
:1003C8000549064BCA6802F4E0621343CB60BFF3E9
:1003D8004F8F00BFFDE700BF00ED00E00400FA0505
:1003E800036B10B50446D3B9836D99891A888906B9
:1003F80092B214D5900612D5E26A6AB99B88E2696E
:100408006169DBB28B54E369E1680133B3FBF1F254
:1004180001FB1233E36102E0988880B29047626B77
:10042800A36DCAB999891A88090692B214D510061B
:1004380012D5A26A616A8A4204D1DA6822F080027F
:10044800DA6009E0A1692069895C99800132B2FB10
:10045800F0F100FB1122A262998A1A88C90592B2AA
:1004680004D5D20702D54FF6F7721A8010BD90F85E
:100478003720034602F0FF0012B1002283F837202C
:10048800704737B50446056C90F84C106B46062249
:100498001830A847A8B19DF800209DF8013043EA1C
:1004A800022323859DF802209DF8033043EA0223A6
:1004B80063859DF804209DF8053043EA0223A3854F
:1004C800012003B030BD37B50446056A6B460622E5
:1004D8003B210830A847A8B19DF800209DF80130BD
:1004E80043EA0223E3829DF802209DF8033043EAA1
:1004F800022323839DF804209DF8053043EA022354
:100508006383012003B030BD084616F0DDBB0FB48D
:1005180007B504AB054953F8042B0193002010F0EC
:10052800C9FA03B05DF804EB04B070471105000880
:100538000E4B2DE9F04193E8E0008846002405447D
:1005480006440744444501DBBDE8F08137F914202F
:1005580035F9140036F914301344022293FBF2F3F0
:10056800C01A16F0C0FC0134ECE700BF0463002099
:1005780038B50446472016F0A7FB1D4B1B68DB0265
:1005880005D51C4B5B681868201A16F09DFC1A4CA0
:100598001A4DA07916F098FCE07916F095FC2B68B6
:1005A800A068C01A16F09FFC6B68E068C01A16F0C5
:1005B8009AFC6423206990FBF3F016F085FCB4F9EB
:1005C800200016F081FCB4F9220016F07DFC208D85
:1005D80016F07AFCA08C16F077FCE08C16F074FC10
:1005E800E3792B74A368AB60E368EB6038BD00BFA8
:1005F8008465002004630020F8670020F062002072
:100608005F4B2DE9F74F1C68DFF8DCA1DFF8DC91C0
:100618005C4A5D4BDFF8D8B1264604F1440746F83A
:10062800040B002552F82510716253F8251046F87E
:10063800041B5BF82510B1605449BAEC010A51F863
:10064800251071610192009327F038F827F8020B02
:1006580059F8041FB9804E49009B019A4FEA850852
:1006680088440135D8F82010A7F84E10032DD9D1A9
:10067800484D494804F13402002335F9131022F893
:10068800021B30F91310D1800133042BF5D1434BF1
:1006980043481A88A4F850205A889B88A4F85430F4
:1006A800404BA4F852201A88A4F856205A88A4F877
:1006B80058209A88DB88A4F85C303B4BA4F85A2071
:1006C800197804F15E0200238B4252DB374BDFF8C6
:1006D80024C11B88A4F88630354BDFF81CE11B8841
:1006E800A4F88830334B344F9B69C4F88C30334BB3
:1006F800334E1B69C4F89030324B334D1B88A4F835
:100708009A30324B5B89A4F88030314B1B88A4F8AF
:100718009C30304B1B88A4F89E302F4B1B88A4F8C4
:10072800A0302E4B1B88A4F8A23004F1A40104F1D8
:10073800B00200235CF8230041F8040B3EF91300D3
:1007480022F8020B37F91300908036F91300508114
:1007580035F9130010820133032BEBD1204B1B8892
:10076800A4F8CC301F4B1B88A4F8CE3003B0BDE8EA
:10077800F08F30F9135022F8025B0133A4E700BF71
:1007880004630020B468002090680020A868002056
:10079800206B0020F46E00202C68002084030010D9
:1007A800AC6700205A4E0020786700208A6B002032
:1007B80064750020906C0020244C0020386C0020C8
:1007C800804C00204A4E0020A84C00203A4E0020C1
:1007D800FE4B0020464C0020424C0020444C002098
:1007E800404C0020AE4C00200804001058040010B3
:1007F8009C680020C8700020D4700020D0B5154B2C
:100808001B680360144B1B680371144B93F8283062
:100818004371134B1B788371124B1B78C3710646C7
:100828001BF06EFF07461BF08FFF044624011BF0E8
:1008380055FF44EA870444F0010444EA80141BF09D
:1008480025FF44EA00241BF037FF44EA0030B0607B
:10085800D0BD00BF84A9002000A50020C8A80020A2
:10086800AF660020F865002030B51C4C85B020B17B
:100878001B4B1B88B3F5805F2ADA1A4D01A8FFF7D6
:10088800BDFF0C22294601A827F0EEFFF0B101AB0D
:1008980003CBA06018686960A860532016F014FAAA
:1008A800A06816F011FB207B16F00EFB637B01930A
:1008B800A37B029301A8E37B039316F075FA2069E2
:1008C80016F002FB064B00221A80012005B030BD4D
:1008D80004F10800FFF792FFDFE700BF3036002081
:1008E800284E00203836002021F085B8F8B50C4B8A
:1008F80015461A6892B11B68052B0FD1094E376847
:100908000C46002D0ADD2946204622F00FFB3368ED
:10091800DB1B322B2C444FF00005F2D9F8BD00BF89
:10092800E8700020949B002010B590F84410002334
:1009380080F8443059B1094C226852B12268052A1E
:1009480009D1074C3030236822F0F0FA23680120DF
:1009580010BD104610BD184610BD00BFE87000203D
:10096800949B0020002280F84520DDE790F8442081
:10097800531C0244DBB280F8443082F8301090F8FF
:1009880045200AB1132B00D9CEE770472DE9F04175
:100998000C4D04468846806817461E4612F0C0FE75
:1009A80048F08001284613F093F93B46002231466F
:1009B800284613F05FF9A06812F0B7FE0120BDE8E1
:1009C800F08100BF003C0040482022F0A3BB582023
:1009D80022F0A0BBF8B504460D4D806816460F46B8
:1009E80012F09EFE0120002117F0B4FB394628467C
:1009F80013F06EF93146284613F06AF9A06812F030
:100A080094FE0120002117F0A5FB0120F8BD00BFCE
:100A1800003C004013B50021044622F003FB1420DB
:100A280017F0A9FB0F21204622F0FCFA0A2017F044
:100A3800A2FB01AB03221021204622F00DFB0A2065
:100A480017F099FB9DF904209FED285ADFED285AED
:100A5800284B06EE902AF8EEE66AF7EE007A76EE74
:100A6800C56A9DF90520B0EE677AA6EEA57A002141
:100A7800204606EE902AB3EE0E6AF8EEE66A27EEF6
:100A8800067A76EEC56A83ED007AB0EE677AA6EE4E
:100A9800A57A9DF9062027EE067A83ED017A07EEFE
:100AA800102AB8EEC77A37EE457AE7EE257A67EE70
:100AB800867AC3ED027A22F0B5FA0A2017F05BFBBA
:100AC8000DF1030301220221204622F0C5FA0DF19F
:100AD800030301220921204622F0BEFA0221204602
:100AE80022F0A0FA012002B010BD00BF00000043B0
:100AF8000000803B0000002010B5064C207838B17B
:100B080017F0E4FAA368C01AC0F5FA5020EAE070BA
:100B180010BD00BFB0880020F8B504460E46FFF7A8
:100B2800EBFF002802DDC11717F014FB0A4B206900
:100B38005F7800251D7012F0F3FDC921074813F0F6
:100B4800C7F83B462A463146044813F093F8206913
:100B580012F0EBFD0120F8BDB0880020003C0040F9
:100B68002DE9F743494C2368C0F8163000F1160602
:100B7800A388B380A4F1140807464FF001090020A8
:100B8800454698F81A30012B5BD04FD3022B74D00E
:100B980000286AD09DF8062012F0030265D19DF85E
:100BA80001109DF800309DF803E0AA7643EA01237E
:100BB8001BB2374907EE903A91ED007AF8EEE77AE2
:100BC80067EE877A91ED017AFDEEE77A17EE903AB3
:100BD800FB829DF8023043EA0E231BB207EE903ADF
:100BE800F8EEE77A9DF805E067EE877A91ED027AEC
:100BF800FDEEE77A17EE903A3B839DF8043043EA1E
:100C08000E231BB207EE903AF8EEE77A67EE877A82
:100C1800FDEEE77A17EE903A7B8333686B61B38811
:100C2800A3800123EB7622E09946AAE7012202215C
:100C3800384622F045FA98F81A30013388F81A3005
:100C480002E0FFF759FF10B198F81B000FE0694662
:100C58003846FFF761FF18B19DF800309B0709D1AE
:100C68000023AB76B9F1000FDED10020E87603B09F
:100C7800BDE8F08307220321DAE7FFF73DFF0028EC
:100C8800E2D169463846FFF747FF81E7443600203E
:100C980000000020C36B2DE9F3410446002B79D0F6
:100CA800187812F0A6FB054628B11423837108238F
:100CB800C371002303720021284612F095FD634B8F
:100CC8006361284612F03FFD002857DB604ADFF8D1
:100CD8008C8104F1140342F8203018F8006028468B
:100CE80012F03BFD0746284612F02DFDC3B203F073
:100CF800030003F0FC0303F1804303F59C338200F7
:100D080099680F20904021EA000199609968F8B22B
:100D1800904008439860284625B112F014FD01233D
:100D280003FA00F04B4B58611968C243114019602F
:100D38005968114059601968014319609968114050
:100D48009960D9680A40DA609A6810439860424B03
:100D58009A5DF02A12DDB044F0229A5598F81030C6
:100D68008DF8043003238DF8053000238DF8063004
:100D780001A801238DF8073022F034F955B128462F
:100D880012F0E1FC012313FA00F01FBF314A136887
:100D98001843106004F11805636C80226B21284603
:100DA8009847642017F0E7F9636C07226821284602
:100DB8009847642017F0DFF9636C00226B212846FE
:100DC8009847642017F0D7F90122636C6B212846F5
:100DD80098470F2017F0CFF994F83530012B8CBFC6
:100DE8001A221822636C1B21284698470F2017F0F7
:100DF800C2F9636C10221C21284698470F2017F06F
:100E0800BAF9636C94F834201A21284698470F20C1
:100E180017F0B1F9636C94F83620192128469847E1
:100E2800642017F0A8F9636C1022372128469847E8
:100E38000F2017F0A0F9636C012238212846984743
:100E48000F2017F098F902B0BDE8F081B10300084F
:100E5800203B0020003C0140603B0020C489020880
:100E680038B5104C05460121204612F0D2FE00216B
:100E7800012017F06FF92846FFF70CFF10226A21AE
:100E880005F11800FFF7A6FD642017F074F9204655
:100E9800032112F0BEFE01200021BDE8384017F002
:100EA80059B900BF003C00400EB477B507AC064600
:100EB800482054F8045B15F007FF202015F004FFC4
:100EC800304615F0F1FE3A2015F0FEFE23462A467C
:100ED8000949019400200FF0EDFD04460A2015F0A1
:100EE800F3FE064A136803341B1B136003B0BDE806
:100EF800704003B0704700BF11050008184E00206D
:100F08000B4A0C4913880968013313800A4A13688D
:100F180001331360094A138801339BB28B42138053
:100F280005D100231380064A1388013313807047C4
:100F3800284E0020B04300202C4E00202A4E0020CE
:100F48008865002038B5284B1B78093B012B0546DE
:100F58000C4647D8452015F0B7FE284615F0B4FED4
:100F68000E2D33D003D86DB10D2D10D038BD282DDE
:100F780036D0FF2D2FD01E2D34D1206815F0A4FFB8
:100F8800606800E02068BDE8384015F09DBF6378D0
:100F98002078A3B180F0800015F096FEA468E0B236
:100FA80015F092FEC4F3072015F08EFEC4F3074037
:100FB80015F08AFE200EBDE8384015F085BE15F004
:100FC80083FE6068BDE8384015F08DBF206815F0D5
:100FD8007BFFA068D7E7054B05481978FFF797FA14
:100FE8000020E8E738BD00BF1051002088AA002083
:100FF80034C002082DE9F04F964B974C8DB0CDE9DF
:10100800000118880293002840F03C812378012BC6
:1010180005D1924B60781B68C41A60426041904EBB
:10102800DFF85C92FFF720FCDDE90001FFF7E8FA42
:101038003468492015F048FE8A4B2546186815F093
:1010480043FF55F8280B15F03FFF284622F09CF87F
:10105800201D22F099F804F1100022F095F804F10F
:101068001C0811274FF0010A4D46D9F800200AFA4A
:1010780007F3134203D0D8F8000015F034FF013706
:10108800142F08F10408F0D1042104F13400764F3C
:1010980015F02DFF032104F13C0015F028FF3B88D3
:1010A800B4F94200C01A15F00FFF2B68990408D54F
:1010B8006E4B1888B4F88630C01AC0F30D0015F0CE
:1010C80003FF2B685A0403D5B4F8880015F0FCFE1A
:1010D8002B685B0504D5032104F1940015F007FF84
:1010E8002B68180503D5D4F88C0015F0FCFE2B6886
:1010F800D90403D5D4F8900015F0F5FE2B68DA036F
:1011080003D5B4F89A0015F0DFFE032104F144007A
:1011180015F0EDFE032104F14A0015F0E8FE032165
:1011280004F1500015F0E3FE2B689B0204D504215E
:1011380004F1560015F0DBFE3B88B4F95E00C01AD6
:1011480015F0C2FE4A4B93F8009004F1600801279D
:10115800B94575DC2B68980505D5B4F98000A0F26F
:10116800DC5015F0C0FEB4F99C0015F0BCFEB4F8D4
:101178009E0015F0B8FEB4F8A00015F0B4FEB4F85F
:10118800A20015F0B0FED4F8A40015F0ACFED4F817
:10119800A80015F0A8FED4F8AC0015F0A4FEB4F928
:1011A800B00015F0A0FEB4F9B20015F09CFEB4F939
:1011B800B40015F098FEB4F9B60015F094FEB4F931
:1011C800B80015F090FEB4F9BA0015F08CFEB4F929
:1011D800BC0015F088FEB4F9BE0015F084FEB4F921
:1011E800C00015F080FEB4F9C20015F07CFEB4F919
:1011F800C40015F078FEB4F9C60015F074FEB4F911
:10120800CC0015F070FEB4F9CE0015F06CFE326813
:1012180018497260B260184B521A121153430133C5
:10122800032293FBF2F202EB42029B1AD02202FB4A
:1012380003133360114B01221A700DB0BDE8F08F13
:1012480038F9020BB4F95E30C01A15F04CFE0137BC
:101258007EE700BF2A4E002011510020B043002035
:10126800046300202C4E0020CA67002080650020FF
:101278007867002010630020C54EECC4334E002070
:10128800846500207F4B1A6832B10CA9002041F810
:10129800200D1860FFF756FE7B4D7C4E0422294630
:1012A800304627F0E1FA48B12B6805930CA933685A
:1012B8002B6041F8203D1E20FFF744FE029B217859
:1012C8001B8860780B44013BB3FBF0F200FB123340
:1012D800994240F2C1810120FFF7C6FA6C4CDFF851
:1012E800B4B1DDE90001FFF78BF9502094E8600004
:1012F80015F0EAFCA268236810681B68626803445A
:101308001068A3EB400015F0EEFD06F1280205F188
:10131800280104A821F045FF04A821F035FF321D5B
:10132800291D04A821F03DFF04A821F02DFF06F196
:10133800100205F1100104A821F033FF04A815F0EC
:1013480033FD05F11C0A06F11C0911270122D846B4
:10135800DBF8003002FA07F1194208D0DAF8000089
:10136800D9F800300392C01A15F0BDFD039A013771
:10137800142F0AF1040A09F10409E9D105F134002E
:1013880006F13401002331F9027B30F9022BD21B1C
:1013980004AF47F823200133042BF4D1384615F065
:1013A8009BFC05F13C0006F13C01002331F9027B6E
:1013B80030F9022BD21B04AF47F823200133042B4A
:1013C800F4D1384615F088FCD8F8002012F40057FC
:1013D80006D0B5F88630B6F886105B1A0493012754
:1013E80051040AD50CAB03EB8701B6F88800B5F8B1
:1013F80088301B1A41F8203C0137530514D504AB3B
:1014080003EB870305F1940106F1940E043B05F103
:101418009A0C31F9020B3EF9029B8C45A0EB0900AE
:1014280043F8040FF5D1033710050AD50CAB03EBCD
:101438008700D6F88C10D5F88C305B1A40F8203C21
:101448000137D1040AD50CAB03EB8700D6F890100E
:10145800D5F890305B1A40F8203C0137D3031BD5F0
:101468000CAB03EB8702B6F89A10B5F89A305B1A02
:1014780042F8203C0137012F40F01A81049815F0FA
:1014880032FD0BE08C6500209065002084A90020C7
:101498000463002084650020002FECD10321442040
:1014A800FFF746F803214A20FFF742F850200321AE
:1014B800FFF73EF8D8F80030980203D504215620EB
:1014C800FFF736F88F4B5E201978FFF731F8D8F818
:1014D8000030990506D5B5F98000B6F98030C01AF4
:1014E80015F001FDB6F99C30B5F99C00C01A15F04D
:1014F800FAFCB6F89E30B5F89E00C01A15F0F3FC59
:10150800B6F8A030B5F8A000C01A15F0ECFCB5F894
:10151800A200B6F8A230C01A15F0E5FC05F1A40740
:1015280006F1A40805F1B00957F8040B58F8043B74
:10153800C01A15F0D8FCB945F6D100274FF00208BB
:1015480007F15801A268636832F9110033F91130C4
:101558002268034432F9110093FBF8F30137C01AEB
:1015680015F0C1FC032FEBD100274FF00208636888
:10157800A168226807F1580E4FEA4E0E7344714471
:10158800B3F90630B1F9060072440344B2F9060013
:1015980093FBF8F30137C01A15F0A5FC032FE6D129
:1015A80000274FF002086368A168226807F15C0E03
:1015B8004FEA4E0E73447144B3F90430B1F9040094
:1015C80072440344B2F9040093FBF8F30137C01ADC
:1015D80015F089FC032FE6D100274FF00208636855
:1015E800A168226807F1600E4FEA4E0E73447144F9
:1015F800B3F90230B1F9020072440344B2F90200AF
:1016080093FBF8F30137C01A15F06DFC032FE6D1F0
:10161800B6F9CC30B5F9CC00C01A15F064FCB6F9AF
:10162800CE30B5F9CE00C01A15F05DFC22683649F7
:101638006368A3606260354B521A12115343013339
:1016480093FBF7F707EB4707D022DB1B02FB0313DB
:1016580023602F4B01221A702E4B1B681A067FF548
:10166800ECAD2D4D2D4C2A6823689A420ED16A683C
:1016780063689A420AD1029B294A1B881268B3EB15
:10168800520F31D1274B1B885B062DD1482015F00E
:101698001BFB286815F027FC686815F024FC2B68EC
:1016A80023606B686360DDE90001FEF761FFC4E554
:1016B8007B1E002004AA400052F82320C0B20AB1C1
:1016C80040F0010013F1FF33F4D215F0FDFA4FF0AA
:1016D800000904AB53F8290008B115F004FC09F11E
:1016E8000109B945F5DBD9E60F4B227CD97991423E
:1016F800D9D19968A2689142D5D1DA68E3689A424B
:10170800D1D19AE57867002010630020C54EECC45B
:10171800334E0020046B002070AA0020F0620020E5
:10172800B043002088650020F867002010B54020ED
:101738008EB015F08FFA002845D1874C2368362BD8
:1017480000F21C82DFE813F0370042004B00520021
:101758005E00620068006D00720077007D00820004
:101768008E0096009B00A700AD00B200B600BC003A
:10177800C200C800CE00D400DA00E300EC00F50097
:10178800FE00780181018A0193019901A201A90152
:10179800B001B701BD01C301C801CD01D201D70114
:1017A800DD01E301EA01EF01F401F901FE010302A1
:1017B80008020D021202694A69496A48FFF774FB78
:1017C80023680133236000200EB010BD664B0093E0
:1017D800664A674B67496848FFF766FBF0E7674B5F
:1017E800674A68496848FFF75FFBE9E703A80FF015
:1017F80091F8002203A906A80FF056FA06AA58493C
:101808006248DBE7624A56496248D7E7624A634959
:10181800537863481278E6E7624B63491A8863484D
:10182800CCE7604B60495A886148C7E74FF07E5261
:1018380060496148C2E75B4A60495388604812883A
:10184800D1E7604B60499A8A6048B7E7604B1B68EC
:101858009A0404D55F4B5C491A785F48AEE70D23BC
:101868002360ADE75B495D484B790A79C9780091F7
:101878005B49B1E75B4B54491A885B489EE75B4B71
:101888001B681B059CD5534A4C49B2F90630584889
:10189800B2F90820A7E717F0F3FD43490246554877
:1018A8008CE7554B40499A78544887E764223E496B
:1018B800534883E7534B3C491B6853489A787DE764
:1018C800504B39491B6851485A7A77E74D4B36498E
:1018D8001B684F48DA7871E74A4B33491B684D4813
:1018E8001A796BE7474B30491B684B481A7A65E70A
:1018F800444B2D491B6849481A885FE7414B4848C3
:1019080019688B794A79C9790091464964E723F0C7
:1019180047FA8178437802780091434841495BE768
:1019280023F03EFA41790379C27800913F483D4956
:1019380052E723F035FA017AC379827900913C485D
:10194800384949E723F02CFAC17A837A427A009120
:101958003848344940E700BF204E002052C00208F2
:10196800D4DE02085EC002089CC0020874C00208E7
:101978006CC002087AC002088AC00208A6C0020821
:10198800AFC0020840CB0208BBC00208C9C00208A9
:10199800B56B0020DCC002081151002086D3020874
:1019A800E7C00208CA67002091D30208F2C0020803
:1019B800FEC002088ACC02080AC10208C2C1020895
:1019C80015C10208280400105ADB020821C10208C8
:1019D80084650020766B002028C102083CC10208FB
:1019E80033C10208806500204CC10208046B002046
:1019F80054C1020861C10208205000206AC10208CF
:101A08007AC102083468002082C102088AC102082B
:101A180096C102089EC10208A7C10208B0C1020807
:101A2800C8C10208BFC10208CEC10208D6C1020857
:101A3800DFC10208E6C1020823F0B2F9817B437BCB
:101A4800027B00914E484F49C6E623F0A9F9417C34
:101A5800037CC27B00914C484A49BDE623F0A0F9BB
:101A6800C17D837D427D009148484649B4E623F014
:101A780097F94749027E4748A0E623F091F9417F4C
:101A8800037FC27E009144483E49A5E6434B404946
:101A98001B684348B3F8442090E6404B3C491B6818
:101AA800404893F8432089E63C4B39491B683E4837
:101AB80093F8402082E6394B35491B683B489A8F9A
:101AC8007CE6364B32491B683948DA8F76E6394B63
:101AD8002F491A78384871E6364B2D495A783748D5
:101AE8006CE6374B2A499A79364867E6344B2849D9
:101AF800DA79354862E6324A3449D389344852891A
:101B080071E62F4A3149138A324892896BE6234B92
:101B18001F491B68304893F842204FE62F4B1C4959
:101B28005A782F484AE62F4B19491A782E4845E625
:101B38002E4B1749DA782E4840E62E4B14495A7A2C
:101B48002D483BE62D4B12491A7A2D4836E62B4B89
:101B58000F49DA882B4831E62B4B0D499A792B48E7
:101B68002CE62B4B0A491A682A4827E62A4A1749BD
:101B780092F84C37294892F94D2734E6012023E69C
:101B8800EDC10208BFC10208F4C10208FCC1020885
:101B980091D3020805C20208FEC1020804A500206C
:101BA8000CC2020818C2020823C2020830C2020886
:101BB8003FC20208A4A9002056C2020852C2020865
:101BC800205000205FC2020868C20208C2C1020891
:101BD80074C2020882C2020894C20208986B0020EC
:101BE8009FC20208186C0020ACC202085C6C00207E
:101BF800BAC202087C6E0020C7C20208CA67002069
:101C0800D9C20208ECC20208AA6B0020FBC2020873
:101C18007C510020CCE102087491002006C3020820
:101C28002DE9F74F9B1A174600930D9A0E9B4C4CC3
:101C38009B1A01936368002914BF06260426013302
:101C480080468A4626D12568AE4240F28780454BB9
:101C580003EB8503D3F818B0584624F0F3FA0B3099
:101C680014F0F8FF814618B1012003B0BDE8F08FE9
:101C78005A46032D94BF414651463B48FEF747FC60
:101C88003A4A1368181A6368106001336360384B66
:101C980083F81C90DFF8D490DFF8D4A065680C9B1B
:101CA8009D4217DB10D1012014F0D4FF60B92F4AF0
:101CB80013680A20013B136015F006F82368013306
:101CC80023604FF0FF3363602068864294BF002092
:101CD8000120CAE70D9B4BB1019B0D9A6B43D25C67
:101CE80001239340234A1268134227D0009B5D4387
:101CF800236807EB05082BBB785924F0A3FA00F1F9
:101D0800050B584614F0A6FF0028ADD1D9F80000FD
:101D18009AF81C30A0EB0B00C9F80000ABB12C20DE
:101D280014F0D2FF2368A3B9785914F0BDFF98F9CD
:101D380004104B1C02D01048FEF7E9FB636801331E
:101D48006360ABE74FF0030BDBE701238AF81C3035
:101D5800E8E79844094898F80410EDE7002084E77C
:101D6800204E0020C489020810C30208184E002023
:101D780030360020846500201FC3020891D3020872
:101D880038B5064C0D460146204611F0A1FF2946FC
:101D98002046BDE8384011F09BBF00BF003001402D
:101DA8002DE9F8432D4D2E4C28682E4FDFF8BC90B6
:101DB8000126267011F0B4FC00210520FFF7E0FF92
:101DC80000210620FFF7DCFF31460420FFF7D8FF8B
:101DD8003E46002339889AB2914203F1010828D877
:101DE800FF210720FFF7CCFF02210520FFF7C8FFDE
:101DF80000210620FFF7C4FFDFF8708001210420CE
:101E0800FFF7BEFF002331889AB2914203F1010720
:101E180018D8FF210720FFF7B3FF286811F085FCC9
:101E28003C220021104826F048FD00232370BDE81D
:101E3800F8839BB2072039F81310090AFFF7A0FFAF
:101E48004346C7E79BB2072038F81310890001F012
:101E5800FC01FFF795FF3B46D5E700BF7451002012
:101E6800735100202012002030600020F03F002035
:101E7800F8B5254F254C386811F052FC244B1B78D7
:101E8800012B09D0022B05D00021A020FFF778FFF5
:101E9800830703D5082300E048232370237813F031
:101EA800400F1C4B15BF4FF4F0724FF4C3721A80E9
:101EB8001A8014BF10230D2300269DB2B3B29D4291
:101EC8001AD82178144C0020FFF75AFF042108463D
:101ED800FFF756FF386811F028FC3C22FF210F4815
:101EE80026F0EBFC227B32B10D4B1B780BB9FFF7C8
:101EF80057FF00232373F8BD06F110000121C0B27B
:101F0800FFF73EFF0136D9E7745100202212002066
:101F1800EC3F00202012002000000020306000204C
:101F2800735100202DE9F0410B4C0C4D8046206880
:101F380016460F4611F0F4FB4146284611F0C8FE3C
:101F48003B4600223146284611F094FE206811F0E5
:101F5800ECFB0120BDE8F081C0880020003C004077
:101F680007B5032101AA0020FFF7DCFF9DF8053023
:101F78009DF804001B0243EA00439DF8060018433D
:101F880003B05DF804FB08B5FFF7EAFF014B5860A2
:101F980008BD00BF3036002008B5FFF7E1FF014B50
:101FA800186008BD30360020F8B504460D4D0068AD
:101FB80016460F4611F0B4FB0120002116F0CAF8AE
:101FC8003946284611F084FE3146284611F080FE35
:101FD800206811F0AAFB0120002116F0BBF80120AF
:101FE800F8BD00BF003C00400348D0F8BC3113B135
:101FF80000F5DA7018477047000000200348D0F851
:10200800A03113B100F5CC701847704700000020CC
:102018000348D0F8843113B100F5BE7018477047F3
:10202800000000200348D0F8683113B100F5B07003
:1020380018477047000000200348D0F84C3113B10E
:1020480000F5A27018477047000000200348D0F838
:10205800303113B100F59470184770470000002024
:102068000348D0F8143113B100F58670184770474B
:10207800000000200348D0F8F8300BB1F0301847C2
:10208800704700BF000000200348D0F8DC300BB1D7
:10209800D4301847704700BF000000200348D0F82C
:1020A800C0300BB1B8301847704700BF000000209F
:1020B8000348D0F8A4300BB19C301847704700BFD4
:1020C800000000200348D0F888300BB18030184752
:1020D800704700BF000000200248C36E0BB1643097
:1020E80018477047000000200248036D0BB14830C4
:1020F80018477047000000200248436B0BB12C3092
:102108001847704700000020024883690BB110305F
:10211800184770470000002008B5054B1B6803B13D
:102128009847044B044A1A6072B6FEF747F900BF95
:102138007C3F0020FCFF0120EFBEADDE08B5034B5D
:102148001B6803B1984772B6FEF738F97C3F002048
:102158000148FEF745B900BFD40100200148FEF749
:102168003FB900BF580400200148FEF739B900BF45
:10217800DC0600200148FEF733B900BF60090020E3
:102188000148FEF72DB900BFE40B00200148FEF717
:1021980027B900BF680E00202DE9F3479A46474B40
:1021A800914603EB80020546146B002C00F08380F7
:1021B8004833636004F16E03A36104F5B773E1600B
:1021C800E361A16E226E4FF480732361636123681B
:1021D800E36504F1040809B1E2636163043322642E
:1021E800626EA2636365A36594F86D0011F001F94E
:1021F800064694F86C0011F0FCF8074694F874024F
:1022080008B120F0B7FE94F8750208B120F0B2FECC
:10221800D4F870321BB12A4A116B0B4313631AF0BE
:10222800080F27D00135EDB21EB10723B371F37142
:1022380035721AF0100F94F8762214BF0221122179
:10224800304611F095FAE26B82B994F878328DF83D
:102258000430D4F880328DF806209B098DF80530BB
:1022680001A801238DF8073020F0BCFE404602B0DB
:10227800BDE8F08719F0020F0DD06B1CDBB226B158
:102288000722B2710522F271337294F87622022184
:10229800304611F06DFA19F0010FD4D00135EDB2C6
:1022A80027B10723BB710623FB713D7294F8762290
:1022B80002213846C5E7A046D8E700BFC48902080E
:1022C800003802402DE9F043674E4FEAC00806EB9C
:1022D800080985B0054699F8040011F08AF8074600
:1022E80099F8050011F085F8044699F8060020F0E1
:1022F80041FE6B1CDBB227B10D22BA710922FA71BB
:102308003B7224B10D22A2710A22E27123720422C7
:102318003A21384611F02CFA204604223A2111F0CD
:1023280027FA56F83540514B9C426BD103F5F233EE
:102338001A6A42F400121A621A6A22F400121A6225
:10234800B04498F80720022A76D0032A76D0484B62
:10235800484F012A18BF1F46B4F8048028F03F08E8
:1023680068464FEA08481CF00DFE4FEA1848029BE1
:102378004148B3FBF0F082B248EA0208A4F80480AE
:10238800218821F001010904090C21803B498F4271
:1023980056D13B49B3FBF1F39BB2042B38BF04235E
:1023A800013292B22284A383238856F835209BB247
:1023B80043F001032380238823F4816323F002037D
:1023C8001B041B0C43F4806323804FF48043238158
:1023D800138823F080031B041B0C138013889BB203
:1023E80043F001031380274A182303FB0523012226
:1023F80083F82120002283F8205083F8222005B09A
:10240800BDE8F083204B9C4209D103F5F0331A6AEA
:1024180042F480021A621A6A22F480028FE71B4B88
:102428009C428DD103F5EE331A6A42F400021A6217
:102438001A6A22F4000282E7104F8DE7104F8BE7EB
:1024480007EB4707B3FBF7F39BB2C3F30B020AB9D9
:1024580043F001034FF4967242434FF47A7143F408
:10246800004392FBF1F29BE7FC100020005400406F
:10247800801A060000350C0040420F00A0860100BB
:10248800400D03003036002000580040005C00403A
:102498002DE9F84FB44BDFF8E0B21822054602FBED
:1024A800003AB24BB14ADB68B14C43F08073D36059
:1024B800B04B5F68182303FB054292F9201092F88D
:1024C80022205BF83160013A142A00F2F380DFE839
:1024D80012F07B009300AA00BC00C700D300DC0008
:1024E800FD000901160121017C019401C0011102BE
:1024F80023022D0236024D02650215009E4B9AF901
:10250800007003EBC7074FF00909387910F071FF25
:102518000646787910F06DFF984A138801339BB20C
:1025280007463046138011F000F9384611F0FDF8DF
:102538001121304611F058F91121384611F054F99B
:102548004FF0650803E00520002115F003FE304632
:1025580011F0F0F810B9B8F10108F4D1304611F0D3
:10256800DFF80021052015F0F5FD304611F0DDF803
:102578000520002115F0EEFDB9F10109E0D1304642
:1025880011F0CEF80021052015F0E4FD384611F0D1
:10259800C7F80021052015F0DDFD304611F0C5F81B
:1025A8000520002115F0D6FD384611F0BEF89AF93D
:1025B8000000431C01D0FFF785FE182303FB0543E9
:1025C800002283F8222075E03388182613F400735C
:1025D80006FB054602D186F822306BE0684B706A2C
:1025E800D3E90023381A002124F054FC42F20F7377
:1025F80098425FDD1523EEE7338823F400631B045C
:102608001B0C338033889BB243F480633380338858
:102618009BB243F480733380182303FB05430322E2
:1026280083F822205F62574930461CF0EDFB1823DF
:102638000146002800F05B8103FB054393F829203D
:102648000AB90422BDE70F22BBE703FB054393F851
:10265800282002F0FE023282052283F822205F62DF
:10266800494930461CF0D0FB002800F0728118233D
:1026780003FB05430622A4E703FB054393F82A203E
:102688003282072283F822205F62404930461CF0DC
:10269800BBFB002800F05D81182202FB0542D36ACB
:1026A80093B933889BB243F4007333805762012394
:1026B80082F82230182303FB054494F82230002BBB
:1026C8007FF4EFAEBDE8F88F0823F1E733889BB2BB
:1026D80043F480733380182303FB0543092283F8EE
:1026E80022205F62274930461CF08EFB18260146DF
:1026F80006FB0546002800F0A6800A236BE703FBCB
:10270800054393F8282042F0010232820B2283F815
:1027180022205F621E4930461CF076FB002800F03C
:102728001881182202FB0542D36A012B32D1338863
:1027380023F480631B041B0C3380EFF311831021F7
:1027480081F31288318B318889B241F4007131806C
:10275800DBB283F311880C2382F82230182303FBA1
:1027680005435F62A6E700BF50360020F0ED00E0A9
:1027780030360020001000E0FC100020384E002009
:10278800103B0020010003008200070084000700BE
:1027980002000300022B15D133889BB243F4006377
:1027A8003380EFF31181102383F31288338B33883E
:1027B80023F480631B041B0C3380CBB283F3118892
:1027C8000D23C9E7338B0E23C6E77A4930461CF040
:1027D80001FB18230146002800F0898003FB05430C
:1027E8001A6B511C1963318A1170DA6A013ADA627C
:1027F800012283F834205F62E3E66F4930461CF01B
:10280800E9FA0146E0B1EFF31182102383F312884D
:1028180033889BB243F400733380182303FB0543CA
:10282800D2B2196B481C1863308A087082F3118879
:102838001A6B511C1963318A11706FF00102D6E7C7
:10284800182606FB0546706A5C4B381AD3E9002344
:10285800CAE6594930461CF0BDFA1823014600283B
:1028680045D003FB0543DA6A032A23D1328822F4D0
:1028780080621204120C3280EFF31182102181F36E
:102888001288196B481C1863308A0870318889B21D
:1028980041F400713180D2B282F311881A6B511C55
:1028A8001963318A1170DA6A023ADA620C2283F803
:1028B800222056E7022A11D8328822F480621204B4
:1028C800120C3280328892B242F400723280328A1C
:1028D800002283F834205F62012272E61A6B511CD1
:1028E8001963318A1170DA6A013ADA6239E703FB4F
:1028F8000546A8E7338823F480631B041B0C338048
:10290800182303FB054393F8282002F0FE023282C5
:10291800102283F822205F62294930461CF074FA9D
:10292800B8B1182303FB054311224AE603FB05430C
:1029380093F82A203282122283F822205F622149EA
:1029480030461CF061FA20B1182303FB054313221B
:1029580037E61D4930461CF03DFA1826014606FBAD
:10296800054600283FF46FAF142334E603FB054304
:10297800DA6A4AB1196B013A11F8010B3082DA624E
:1029880019635F6212221CE6328892B242F4007226
:10299800328001225F6283F8342012E633889BB2CA
:1029A80043F4007333804FF6FF33B382182303FBDD
:1029B800054390E74000001004000010103B002081
:1029C80082000700840007000004001038B50E4D8F
:1029D800182404FB005494F821509DB1E362049B31
:1029E80084F82A20490000222363022384F828104F
:1029F80084F8292084F8342084F82230FFF748FD31
:102A080094F83450284638BD3036002007B50120E8
:102A1800009313460A466821FFF7D8FF03B05DF814
:102A280004FB13B58DF807300F4B182404FB003452
:102A380094F82130ABB1012384F82930E3620DF119
:102A4800070323630023490084F83430022384F801
:102A5800223084F8281084F82A20FFF719FD94F80A
:102A68003430184602B010BD30360020134601201D
:102A78000A466821D5E713B50023019300933E4B1E
:102A88001A6842F480321A6019461A6802F4003251
:102A98000092019A01320192009A1AB9019AB2F58C
:102AA800A04FF2D10B6813F4003318BF0123009331
:102AB800009B012B45D1304B30491A6C42F08052B3
:102AC8001A640A6842F440420A609A689A609A68EE
:102AD80042F400429A609A6842F4A0529A60284AE6
:102AE8005A601A6842F080721A601A689201FCD51E
:102AF800244A40F2057111609A6822F003029A6034
:102B08009A6842F002029A601B4A936803F00C0329
:102B1800082BFAD193681C4903F00C03042B12D03C
:102B2800082B12D0194B0B60134B9A68184BC2F341
:102B38000312134413F8102C0B68D3400B6002B037
:102B480010BD00BFFDE7134BEDE7546850685268AD
:102B58006302C2F3881200F03F004CBF0D4B0B4BD1
:102B6800B3FBF0F35343044A5268C2F30142013203
:102B78005200B3FBF2F3D6E7003802400070004081
:102B880008544007003C0240F81000200024F400DC
:102B9800F810002000127A0010B5104CD4F88830D4
:102BA80043F47003C4F888300D4B1A68002142F0D2
:102BB80001021A6099601A6822F0847222F4803245
:102BC8001A60084A5A601A6822F480221A60D9608A
:102BD800FFF751FF4FF00063A36010BD00ED00E068
:102BE80000380240103000242DE9F04F2DED028B03
:102BF800C64DDFF8AC93C64F0026A1B04FF48062F3
:102C08003146284689F8006025F057FEC14BC5F8C3
:102C18000434C5F80064C5F80864FFF72CFFBE4B00
:102C2800FB60BE4BBE485A6FBE4ABA605A6B22F070
:102C380080025A635A6F42F080725A67196BBA4A17
:102C48000A431A635A6B5A639A6B9A631A6C42F076
:102C58005B5242F47B1242F41F6242F00F021A6484
:102C6800596CB24A0A435A6420AC01238DF84730A4
:102C780048F2FF7344F8403D21464FF6FF788DF83F
:102C880044608DF845608DF846601CF0BFF9214618
:102C9800A748CDF840801CF0B9F92146A548CDF8E1
:102CA80040801CF0B3F92146A3481CF0AFF9214637
:102CB800A2481CF0ABF92146A1481CF0A7F921460F
:102CC800A0481CF0A3F921469F481CF09FF9214613
:102CD8009E481CF09BF920461CF054F99C4A109B16
:102CE8009C49B3FBF1F3C5F81034D368C5F81464F4
:102CF80043F08073D360984A984C136843F00103FB
:102D080013602368C5F818644FF47A72B3FBF2F3C2
:102D1800013BB3F1807FC5F81C6407D2904A536029
:102D2800F02387F823300723966013608D487C4989
:102D38008D4A824F4FF0010E30F8026F002346FA99
:102D480003FC1CF0010F18BF0EFA03FC03F101038A
:102D58001EBF1160A2F804C00C32102BEFD101F590
:102D68008061B942E8D1814B1B787E2B00F0EE835D
:102D780016F005FB15F078FF7D4F7E4E16F0C0F873
:102D8800FB79E37200210846E374E37610F026FB32
:102D980099F80030BA7943F0010389F80030764B8E
:102DA8001A70764B00201B683360B846744F20F0C9
:102DB8000DF94FF0170900234FF0020A57F82300C6
:102DC8005C1C38B180F8069080F807A004720121D5
:102DD80010F00AFD032C2346F0D1002020F0F6F86D
:102DE8004E4A684C536C6848684FDFF8B89143F412
:102DF800804353640021402225F05FFD4FF0FF33EC
:102E0800C5F860340021C4F80330012010F0E6FA58
:102E18004FF4FA7015F0AFF904F108007822002198
:102E280025F04BFD0024E159002359F83320914245
:102E380009EBC30040F090830079103420F09AF831
:102E4800602CF0D1514C04F160092746387910F014
:102E5800D0FA103717F8082C17F8091C10F088FC5E
:102E6800B945F3D1DFF84091D6F800A0DFF83CB1BE
:102E7800072354220021484685F8E03425F01DFD3B
:102E8800142389F80030022389F82430032389F8B1
:102E98003030042389F83C300127052389F848306D
:102EA80089F818709BF80090484617F023FC384BB7
:102EB800DFF8FCE0CDF808B04FEAC902991891F89C
:102EC80069C08EF800C091F86AE0324981F800E0E4
:102ED800817A09B9CAF3401785F8E174002940F0EE
:102EE80041832D490AEA0101003118BF01212B480D
:102EF800C5F8E41440F2DC5E002120F811E001314D
:102F08000829FAD1002F40F02F8353E00037002022
:102F180000ED00E0750001080005FA0500380240E0
:102F28000000024000000008FF916700335F0700BF
:102F38000004024000080240000C02400010024059
:102F48000014024000180240001C02400020024009
:102F5800F0ED00E040420F00001000E0F810002003
:102F680010E000E0328A02086086002000000E08A7
:102F7800AA6B0020046B00205C7100207C510020AB
:102F88002CA80208603B0020203B00203C8A020855
:102F9800348A0208F4A30020200010003A4E0020D2
:102FA80099AA0020B8A70208E89B0020EC67002037
:102FB800F3A30020A9F11709B9F1020F09D821F0EC
:102FC8006BFEBE4B1B7823B10123C5F8E43485F8AA
:102FD800E134BB4BBB489FEDBC7A03F16007B3F902
:102FE8000820B3F90610891A07EE901AF8EEE77A66
:102FF800B3F90410C7EE876A521A0C339F4200F1E6
:10300800080007EE902AF8EEE77A40ED026AC7EE6C
:10301800876A40ED016AE2D117F07EFB2022002189
:103028000DEB020025F049FC029B187817F062FBB3
:1030380000B1007A0890012021F068FD18B10088DD
:10304800003018BF01208DF82A00052021F05EFD10
:1030580018B10088003018BF012032688DF82C00A4
:10306800C2F340038DF82D30C2F380138DF82F3052
:10307800964B19784F1E7B427B418DF82530C2F361
:10308800C0338DF8283012F4006304D0904B9B7A3B
:10309800581E43424341881E8DF82930C2F300432D
:1030A8008DF8303043424341CF1E8DF8263095F8D5
:1030B800E13479427941003318BF01238DF831306A
:1030C800C2F300538DF83230824B8DF827101988DF
:1030D800ADF8361080495B88ADF834300B7A8DF83E
:1030E8003830581E02288CBF00200120D20448BF67
:1030F8007A4A8DF82E0048BF9288C8888988ADF82A
:103108003C1048BFADF83C20042BADF83A0008D17C
:1031180000274FF480508DF82E700DF08FF9ADF820
:103128003C7033686E48C3F300728DF8242098F819
:103138000A2085F828251A0148BF00234FF03802D5
:103148004FF0000144BF8DF831308DF8323025F052
:10315800B4FB4FF00009624D4F469DF82C30002B10
:1031680000F03A822379363B012B00F23582122196
:103178002B786A78ADF8441044F20101ADF84C3070
:10318800ADF84610ADF84870ADF84A20032310A8F2
:10319800ADF84E3010F007F90137062F04F110048E
:1031A800DBD1029B4F4F1D7800242846173D3C7009
:1031B80017F0A0FA022D00F21084DFF84CE10EF1AE
:1031C800C00C0EEB0403D3ED007AF5EE407AF1EE75
:1031D80010FA40F0F4833368D90400F11A8417F028
:1031E80071FA9DF82E301BB93F4B012283F808284D
:1031F8003E4D0021022010F0F1F82B78182043F002
:1032080004032B7010F0F5F80295044628B1152335
:1032180083710223C371002303720121204610F039
:10322800E3FA14B12368A2885A83314C314D1D2624
:103238000E27AC42C0F00F8400200CF071FF012073
:103248000CF06EFF02200CF06BFF0120FFF73AF83C
:10325800294A00230593136813F0020F93461EBFF3
:10326800214A92F809288DF814201A0442BF1E4AF0
:1032780092F80A288DF815201B0508D5144B9B7A5F
:10328800012B02BF184B93F80B388DF816301B4BE7
:103298001B481B7803F0FD03012B08BF124B4FF0AE
:1032A800000104BF93F80C388DF817301E2225F062
:1032B80004FB0023134905A81C4627E0F2A30020BD
:1032C80078A40020E83B00200000FA437C6E002030
:1032D800766B002080500020CA670020C467002059
:1032E800E44F0020786700200037002099AA0020CA
:1032F80090F7020894F70208046B00202C6C002059
:103308000D3F00204C6C0020883D00201A5C551EA3
:10331800032D94BF41F8232041F823400133042BA7
:10332800F4D1002351F82320012A01F0A8850133A4
:10333800042BF7D1002351F82320022A01F0A58598
:103348000133042BF7D1002351F82320032A01F07D
:10335800A2850133042BF7D100231A4651F8230024
:10336800042808BF41F823200133042BF6D18A4EE4
:103378008A4CDFF834824FF00F094FF0000A06F547
:103388009C77A07940B394F9075010F032F828B12F
:1033980006238371002380F807900372132110F02D
:1033A80023FAA179002317F8130088424FEA430251
:1033B80040F06283B31893F839312372182303FB62
:1033C80005856B6B63725A1C0723E37201236A63DA
:1033D800A37285F830309A4409F101095FFA89F936
:1033E800B9F1130F04F10604CBD1BAF1000F40F084
:1033F80049836B4B5C6F14F0805401F05285694D22
:1034080019F050FA0023C5F84C38674B4FF0FF32DB
:103418009A66DBF800309F0337D5C82014F0ABFE5E
:10342800AE2013F0FDFB08B112F0C4F85F4F85F829
:103438005008C82014F09FFE5D4BC5F85438384634
:1034480011F090FCFF2385F8613808230124002639
:1034580085F85C383846152385F85D3885F8604866
:1034680085F86268C5F8647813F0E0FB85F8686849
:1034780085F8694814F02AFE45A3D3E900231218F9
:103488004B41C7E9072312F03AF9DBF80030494805
:103498001E0642BF484B494A1A6000211022484E76
:1034A80025F00BFA00242320346214F064FE20ABCC
:1034B800012203F86E4D752106F11800FFF7A6FAF0
:1034C800002800F0D1833F4B33643F4B73644323A0
:1034D80086F84C3001220DF11303214606F118003D
:1034E800FFF794FA9DF8133003F07E038DF813303C
:1034F800002840F027869DF8123003F07E03682BE1
:103508008DF8123040F044860622022386F83930BE
:10351800114610AB346C2D48A0479DF845309DF8F6
:1035280043209B00520002F0020203F004031343FD
:103538009DF8412002F00102134300F01A86012B86
:1035480040F00A86002386F83A30C6E30DF042F8C8
:1035580000287FF411AC0BE401330E2B7FF465AC2B
:1035680000206AE40121C2E41A44194B92F8681059
:10357800D26E1970002A3FF41DAD164800238B4205
:10358800BFF618AD52F8237040F823700133F6E700
:10359800404B4C0000000000348A02080D3F002018
:1035A8000038024000370020F8100020543F002067
:1035B8008C8B020804040010686C00207A500020EC
:1035C800C86B0020152A0008752A0008E06B002047
:1035D800F2A30020F5A300209DF82730002B40F02F
:1035E8009A809DF825301BB1E3689B0700F1958010
:1035F8009DF8263013B1E36803F00103089A002A06
:1036080040F08D809DF83110E26811B1100700F18B
:103618006F819DF8321011B1D10600F1698112F065
:10362800040F40F0F280002B3FF4B6AD012BDFF819
:1036380014A340F08D800023FF229DF838008AF8FB
:103648002C35CAF83035CAF83435CAF83835CAF8CE
:103658007C358AF880258AF881258AF882358AF8A7
:1036680083358AF88435AD4A1A44D26812F0240F9B
:1036780004D0AA4A9958226891425AD01033602B34
:10368800F1D14FF000088AF88885CAF89445207966
:103698000FF0AFFE28B1022383710123C37180F8B4
:1036A8000880E17910F0A0F8204620F08BF89C4AB9
:1036B8009C4BCAF898354FF000089B4BCAF89C35CC
:1036C800111F2046CAF8A08514F042FC42466179D1
:1036D80020680FF088FDAB78ADF8487005EBC303A0
:1036E80020225A722B796A78ADF84A2001331321C7
:1036F8002B71ADF844102B78ADF84C304FF4804165
:10370800ADF84610ADF84E8010A80FF04CFEAB781F
:103718000133AB7040E5002370E702236EE7013AFE
:10372800012A80D8E268500600F1E28012F0200FEA
:1037380077E7431E032BA4D8DFE803F00208060846
:103748000C227A4B1A779CE75422FAE71522F8E7FD
:103758005FFA89F81C2303FB08A300224FF0010B32
:1037680083F88A2583F8922583F8898583F888B5B4
:10377800C3F8944520790FF03CFE08EB0B03DBB24D
:1037880020B180F806B080F807B00372E17910F034
:103798002BF8204620F016F81C2101FB08F18A447A
:1037A800634BCAF89835634BCAF89C35624B4FF0A7
:1037B800000801F1140210311A4419442046CAF8CD
:1037C800A08514F0C5FB4246617920680FF00BFD17
:1037D800AB78ADF8487005EBC30340225A72EB781A
:1037E8006A78ADF84A2001331321EB70ADF8441024
:1037F8002B78ADF84C304FF4804109F10109ADF850
:1038080046100123ADF84E307EE795F801A0BAF1D5
:103818000B0F0FD912222B78ADF8442044F2010285
:10382800ADF84C30ADF84620ADF84870ADF84AA078
:103838000123ACE49DF838B0BDF83AE0BDF83C305F
:103848009DF824000BF1FF31032940D8DFE801F08F
:1038580043373B02DFF8F08015210023374A0090F8
:103868004A432046B2FBFEF292B20FF0E3FF344B1C
:1038780043F82A009DF82E30C0F80C807BB3AB7853
:10388800192205EBC3035A72AA786B78ADF8487011
:103898000132132105F8323005EBC2020133DBB2E5
:1038A8005460ADF844102A786B704FF48041ADF83D
:1038B8004A30ADF84610ADF84C200223A2E7DFF8F5
:1038C8008C801521CAE7DFF888805421C6E7DFF825
:1038D80084800121C2E7DFF880800C21BEE7AB7845
:1038E800BBF1040F05EBC3030CBF0D220922CAE785
:1038F80095F80080B8F1070F30D912226B78ADF82F
:10390800442044F20102ADF84A30ADF84620ADF843
:103918004870ADF84C80022339E400BF3C8A0208A5
:103928009C3C0020412D0108912E0108F810002030
:1039380009330108192D0108883C002040420F0076
:103948007C67002000370020D92E01087D2F010850
:10395800452F0108C92E0108A92F0108BDF83420F8
:10396800B74991FBF2F29DF82410BDF8363000916A
:1039780092B2012120460FF05DFFAA78B14BADF855
:103988004870013205EBC20103EB88080A234B702B
:103998002B7805F832304C6001331321DBB26A789A
:1039A800ADF844104FF480412B70ADF84C30C8F896
:1039B8006806ADF84610ADF84A20032322E70FCB7E
:1039C80004EB0C0585E80F003B7810340133C02C5C
:1039D8003B707FF4F6ABFFF7FEBB9B4A437A527805
:1039E800D0F804C0934228BF13463B70BCF1000FC7
:1039F8003FF4F1ABDFF85482DDB2AC42BFF6EBAB7B
:103A0800230103EB080E63440FCB01348EE80F004B
:103A1800F3E7397801297FF6E2AB8C4A131D02EBF4
:103A280001121432F6EE007A10339A423FF4D7AB03
:103A380013ED037A27EE277A03ED037A13ED047A60
:103A480027EE277A03ED047A13ED027A27EE277A18
:103A580003ED027AE8E72378022B0AD1E0780FF029
:103A6800C8FC30B100228671C771027220210FF0A4
:103A7800BBFE0434FFF7DDBB0133102B7FF493AC9E
:103A880000239AE4724C0027237C002B00F0A880C6
:103A98007BB2607903931FF06DFA20796D4D1FF0AA
:103AA80069FAA0681BF0E6F90023139315931B939A
:103AB8001C931D931E932368674AA0684C33119387
:103AC800E36810930A2303FB072312936369149393
:103AD800022BB4BF00234FF4806316934FF40063A6
:103AE80017934FF4005318934FF48073199310A948
:103AF8004FF400331A931BF093F9A268136843F04C
:103B080001031360554B554A5B6823F4733323F460
:103B1800477323F0030343F4403353602268616919
:103B28005368012923F04073D4BF0020012023F4F7
:103B3800807343EA002353609068494B034043F085
:103B480002039360D36A013923F47003C9B243EACC
:103B58000151D16201234FF01F0C4FF00709A97AD8
:103B680051B395F907100398814225D1297AEE7A45
:103B780003F1010E09295FFA8EFE38D9A1F10A0076
:103B8800D2F80C8000EB400009FA00FA28EA0A088B
:103B980006FA00F040EA0800D060062B34D8013B52
:103BA800506B03EB83030CFA03F620EA060001FAD4
:103BB80003F31843506373462A490635A942CED108
:103BC800936843F400739360936843F4807393603D
:103BD800936843F001039360936843F080439360D4
:103BE8000137032F04F118047FF44EAF01E4106984
:103BF80001EB410809FA08FA20EA0A0A06FA08F667
:103C080046EA0A061661C8E70C2B0CD8073B106B6E
:103C180003EB83030CFA03F620EA060001FA03F328
:103C280018431063C7E70D3BD06A03EB83030CFA14
:103C380003F620EA060001FA03F31843D062BAE754
:103C480040420F0000370020E44F0020483E00208B
:103C5800181100200D3F00202C3F002000230140B8
:103C6800FDF7FFC0253F0020306A10B930200FF063
:103C7800C0FB95F87838306283B920B1142282717C
:103C88000E22C27103720921306A0FF0ADFD0321C3
:103C9800C0480FF0BEFF012385F8783880226B21D9
:103CA800BD48BD4FFCF796FE0524962014F063FA34
:103CB80010AB012275213846FCF768FE9DF84030AC
:103CC800712B00F03D8200F22582122B00F0328227
:103CD800702B00F03382013CE7D196F83920B36CA1
:103CE800C5F87C380024AD4BF363042A86F83840C5
:103CF80041F0EB80AA4B3360AA4B7360AA4BF36088
:103D0800AA4B7362032386F8383007240923ADF8D9
:103D180044304FF48043ADF8463010A80023ADF886
:103D28004840ADF84A30ADF84C30ADF84E300FF0A1
:103D38003AFB002C33D09E4B1C709E4C012021F086
:103D48001BFCE278A37986F83430002A00F026823A
:103D5800A278002B14BF4FF47A737D23511E86F886
:103D680036105343944F95483B60336898472378FF
:103D78000BB186F83830924E924B33607360B36063
:103D8800E379002B40F00E826389002B40F02682F5
:103D9800E389002B40F03A8218F0E4FE10B90120C4
:103DA80014F0F4F9002104200FF018FB029B029A8A
:103DB8001B78002043F0020313701FF007F90A264E
:103DC8001FF0F6F8192014F0D6F9192014F0D3F9D9
:103DD800701E10F0FF06F3D130461FF0F7F816F00A
:103DE800F5FB794BDFED797A1B7C9FED798ADFF85B
:103DF800108200EE103AB8EEC00A20EE270A0DF045
:103E080041FA744B83ED000A734B83ED008A83ED0E
:103E1800018A83ED028A714B1E70714B1E70714BC3
:103E28004FF07E521A60704B83ED008A6F4B83ED22
:103E3800008A6F4B83ED008A21F04AFA2022FF2185
:103E4800404624F03AFD6B496B4B0F6888F80060D8
:103E5800012217F002061A70404609D088F801209E
:103E6800022288F8022004221A701A2288F80320F5
:103E7800DBF800104C0204D41A78541C1C7014246B
:103E880084541A78042402F1010E5FFA8EFE8454D9
:103E980017F00A0483F800E00DD04FF0050C00F885
:103EA8000EC002F1030E0232D2B283F800E04FF0E6
:103EB800060E00F802E08A0608D51A7802F1010E0B
:103EC80083F800E04FF0070E00F802E017F0040F47
:103ED800DFF8308101F0800704D1D8F80020D2063D
:103EE8000FD58FB11A784FF0030E00F802E002F1F7
:103EF800020E0132D2B283F800E04FF0180E00F83B
:103F080002E00FB10A2C05D0D8F80020D20616D549
:103F1800AEB1A7B11A7809248454541CE4B2082617
:103F28000655941CE4B213260655D41CE4B2152693
:103F38000655541D0432D2B21C7016248454D8F885
:103F48000060F40610D51A780A248454541CE4B28C
:103F58000E270755941CE4B21B270755141D03327E
:103F6800D2B21C701C248454720604D51A78541CCE
:103F78001C70192484541A780B248454541CE4B2F9
:103F88000F27961CF6B207554F051E7041D51B4CDE
:103F9800247A39E0003C0040E06B0020B88B02082E
:103FA8009D0C00088B0400087704000890C1793D37
:103FB800186B00202050002004040010C86B00205B
:103FC80000000010F9FF0008AC03001035FA8E3C21
:103FD80000000000FC0300107803001044030010E8
:103FE800F40200108C0300109003001094030010DA
:103FF80098030010006B0020CAA90020B4440020D8
:10400800AAA9002000A500201CB103321A701022B2
:1040180082550C0304D51A78511C1970112181544A
:104028001A78874E874FDFF850A217218154511C08
:10403800C9B212244454911CC9B21D244454D11C41
:10404800C9B21E244454511D1970131DDBB21F221E
:10405800C25400214FF422727B487C4C24F02DFC82
:1040680019F0CCFC7A4B276200221A809A70DA7019
:104078007848738B0397DFF804C2774FDFF800E2C4
:10408800C4F81CE00021C4E90401CDF808E0227658
:1040980085F8802819B2E646B94638682CF8121017
:1040A80000F596704AF822000132122AF5D16B4FBA
:1040B8003A68D00458BFB6F92010AEF8061068491F
:1040C80001F150000A78AAB98A7891F803C06245CC
:1040D80010D2002A00F0B080013A02EB820291F877
:1040E80001C002EB820202F561720CF1040C92B27B
:1040F8002EF81C2004318142E4D131784A1E052A69
:1041080000F2D880DFE812F0C200C200C802DF0463
:10411800D600EF04982B0FD0AF2B7FF4DCAD09232A
:1041280086F83930432386F84C304E4B33644E4B77
:104138007364D2E50823F3E70C23F1E70523EFE7DF
:104148000623EDE7682B7FF4D6A9012386F83930DA
:104158001D2386F84C30C0E5022B02D10123FFF75E
:10416800F2B903F00303032BF8D0032014F00EF880
:10417800B3E506AB346C3D4801220C21A0479DF8FD
:10418800183013F00F03F0D0042BE7D1FFF7DAB99A
:10419800702B04BF042386F839309EE5A38886F87F
:1041A8003620DFE5B146324B49F80C3B9FED318AAA
:1041B8004FF0000806F1600A1C2000FB08904AF83E
:1041C80028000023B0EE480A3A68E17908F10108AE
:1041D8000DF060F8B8F1030FEED1D5E5DFF8A49043
:1041E800234B73604FF0000809F1540A1C2303FBAA
:1041F80008904AF82800A3896289396808F10108FB
:104208000DF0B6F8B8F1030FF0D1C1E5DFF878800A
:10421800174BB3604FF01C0A002608F154090AFB3B
:10422800068049F82600238AE289396801360DF0AC
:104238009FF8032EF3D1AFE50CF101024DE700BF63
:104248007C6E0020C5D10108EC8E0020D8A4002087
:10425800C8A80020A0860100949B0020046B0020C1
:1042680010A9002095090008DD090008E06B00206E
:10427800B3FF0008F304353F843F0020F46E0020AC
:10428800C9D101086C000010CC00001044F620626F
:104298000023C4E90223012399422376B74B07BFC1
:1042A800E36108221022E3610BBFB54BB54B2270C6
:1042B80022702362B44E336813F0005400F0118664
:1042C800B24BB34893F8543085F8D838B14BC5F899
:1042D800DC3810F0B9FB012385F8E8384FF0000A04
:1042E800FF23142085F8EAA885F8E9380FF081F84B
:1042F800A94C206028B1122383710E23C37180F862
:1043080008A009210FF070FA0221A4480FF081FCDF
:1043180020680FF005FA02210020FDF731FD206822
:104328000FF003FA95F8D8389D4A85F8EC384FF421
:104338000051002322F813100133B3F5F07FF9D1AF
:104348009348984C10F01CFB914B2360184612F0D0
:104358006DFC954B954A1B68206803F004031370A5
:104368000FF04DFC924A934910A80CF088FC10AB52
:104378000622052120680FF019FC072211468E4BF2
:1043880020680FF013FC8D4B206808220B210FF0DA
:104398000DFC09220B218A4B20680FF007FC2068CE
:1043A80003685B6A984713F091FE864B00F574101A
:1043B80000F5106018600023834A1C4699189C5425
:1043C8006833B3F5D06F4C70F8D14FF4005020F03B
:1043D800E1FBC0B10323427990F9020000937B4BC3
:1043E800019453F822304FF40051002220F0D8F8FD
:1043F800774B186038B1774900220023C1E90023C0
:10440800754B01221A7033681A0623D5734D744B05
:104418006B60744B2B60744B00245C609C606C7404
:1044280010F0E0FCD9F800302B622046EC7410F054
:104438003DFD2A686D4B11780C224A439A469A5CD6
:10444800022A40F06083012010F030FD0021052091
:104458000EF0C4FF664B012200241A70654A83F8E7
:104468004D4783F8604783F84C475C709C70DC705C
:104478001C71DC711C725C729C725C74C3F8242120
:1044880083ED4A8AC3F82C2103F26C7383ED008A0A
:104498000BF0C6FA33685B0505D50FF0C3FC21465F
:1044A80007200EF09BFF3368534A544D13F4002342
:1044B80018BF01231370524B5B78202B00F25E83E8
:1044C8002023C5F8B03C4F4BDFF85CA14FF47A725B
:1044D800A3F84820D9F80030C5F8B43C4A4B00246A
:1044E8001C704FF40060D9F80030C5F8B83C85F866
:1044F800BC4C20F04FFB78B103234FF0180E90F915
:10450800020022468DE808404FF400614FF49653AC
:1045180020F046F8CAF80000DAF8003013B13B4B37
:104528003B4A1A604FF4805020F034FB70B10323EB
:10453800082490F9020000228DE818004FF48051F9
:104548004FF4165320F02CF8C5F8C00CD5F8C03C31
:1045580013B12E4B2F4A1A60336840F602021342F9
:1045680064D02D4A032111702C4A012111702C4965
:1045780000220A802B490A8058E000BF19D201089E
:10458800C9D30108E7D10108046B002016510020A7
:10459800DC3F0020BC8B0208745100200030014031
:1045A800F03F002054AA00201C6F00206CAA0020B5
:1045B80074C002083EC302084FC302085DC3020864
:1045C80068C302087CAA0020509C0020F8A40208B6
:1045D800846F0020B86F0020806F0020686C002076
:1045E800AC9B00207A500020086B0020A4A402088D
:1045F80074910020000080BF105100200037002077
:1046080011510020F802001090710020C88E00207F
:1046180064110020801100204845002090280020C7
:104628005075002052750020709B002019010AD592
:104638000EF046FDD8F80030002800F0A98243F4B7
:104648008063C8F800304FF4806020F0A3FAAD4CC6
:10465800F8B10022032690F90200019200964FF467
:10466800E1334FF480611FF09BFF206088B1013E69
:1046780040F0CF8210AB0093019633463246314664
:10468800A04819F056FA002840F01B8320681FF054
:1046980072FF0023236025E3727A092A55D8DFE8E0
:1046A80012F00A000A006500A500D400F600F60022
:1046B8007901B501E301944B94481C60012A94499F
:1046C800944B48D14FF0030E1A7080F800E00C2389
:1046D80007200870237042F6F8220023C4E9022359
:1046E8008D4BE36140208D4B236220F053FA8246C4
:1046F80058B31BF013FCF27A9AF902E000280CBFB9
:1047080001230323002A0CBF0022082282460192BB
:104718000093834A4FF4E133402170461FF040FF75
:10472800BAF1000F01D0C5F8CC08F37D21787D4A95
:10473800013BDBB29942137001D80023137000309B
:1047480018BF012000287FF4B5AD00233370029B09
:10475800E361039BADE50222027003220A70002286
:104768001A700723237045F2F052B6E76E490A2201
:104778001B0193FBF2F30022A3F5B06341F822304A
:104788000132122AFAD12270002342F6F822C4E933
:104798000223664BE3614020654B236220F0FAF95F
:1047A80082460028D1D01BF0B9FBB37AF17A9AF986
:1047B80002E000280CBF01220322002B0CBF0623B5
:1047C800072300290CBF002108210B4382468DE8EE
:1047D8000C004021574B584A70461FF0E1FEBAF1D1
:1047E800000FACD0554BC3F8CC08A8E710232370B2
:1047F80042F6F8220023C4E90223514BE36140202A
:10480800504B236220F0C6F9824600289DD01BF049
:1048180085FBF27A9AF902E000280CBF01230323F2
:10482800002A0CBF002208220192474A00938246C0
:104838004FF4E133402170461FF0B2FEBAF1000F89
:104848003FF47DAFC5F8CC0879E70823237042F61A
:10485800F8220023C4E902233C4BE36140203C4B8F
:10486800236220F097F9824600283FF46EAF1BF0D0
:1048780055FB002200280CBF012303239AF902E00C
:104888000192009382464FF4E133324AD2E7DFF8CF
:10489800E8E0314800230C21062A21708EF8003008
:1048A80003706BD02D4A13702D4B1B221A702D4BA1
:1048B80019702D4B05221A704FF4E13B42F6F8228D
:1048C8000023C4E90223294BE3614020284B2362DB
:1048D80020F060F9824600283FF437AF1BF01EFB3A
:1048E800F27A9AF902E000280CBF01230323002A78
:1048F8000CBF002208220192009382465B461D4AA3
:1049080098E700BFA86E0020E8690020E66900204B
:10491800ED6900209B69002079BF0108A1BF01084B
:1049280015C40108EC690020F069002081C0010865
:10493800B5C00108A086010065C401080037002041
:10494800E1BE0108F5BE010869C3010859BE0108A6
:1049580071BE01081DC30108A16A0020A06A0020D9
:10496800A26A00201A690020A36A00209DBD0108E0
:10497800B1BD010855C20108F86800208648DFF873
:1049880088B20370854B21201870854B1970854BB0
:104998001A7093E7844B4FF0000B83F800B00E2396
:1049A800237044F620620023C4E902237F4BE361AD
:1049B80040207F4B236220F0EDF800283FF4C5AE7D
:1049C800B0F800A07B4B90F9020083F800B00AF41D
:1049D800107AF37ABAF5107F14BF012203229BB92B
:1049E800BAF5107F14BF5B4608238DE80C00402100
:1049F8004FF4E133704A1FF0D3FDBAF5107F7FF40E
:104A08009EAEC5F8D0089AE60823EEE7102341F2D7
:104A18007C5223700023C4E90223684BE361684B8E
:104A28002362684B00221A70674B282240201A70B4
:104A380020F0B0F800283FF488AEF37A90F902002D
:104A4800624A002B0CBF0023082301930323009321
:104A580040215F4B1FF0A4FD0121C5F8D4080EF0DA
:104A68008FFBD5F8D4086AE65A490A221B0193FB42
:104A7800F2F30022A3F5B06341F822300132112A83
:104A8800FAD10023227042F6F822C4E90223524BDD
:104A9800E3614020514B236220F07CF800283FF46A
:104AA80054AEF37A90F902004D4A002B0CBF002354
:104AB800082301930323009340214A4B1FF070FD04
:104AC800494B18603BE6122344F62062237000230A
:104AD800C4E90223454A0023C4E90423444BE361A3
:104AE800444BFFF7E6BB102344F6206223700023F3
:104AF800C4E902233D4A0023C4E904233E4BE36191
:104B08003E4BFFF7D6BB012A7FF4A0AC022020F071
:104B180041F860B980200BF091FC97E40133DBB2D7
:104B2800042B4FF0010407D900236B740CE03449BF
:104B380090F804E06B7C0A4601EB030C9CF8B4C1C6
:104B4800F445EBD1002CF0D16B7C90F902001A44AB
:104B58000C2492F8B411002201922B681B7804FBF4
:104B680003A35B780093274B53F8213002211FF0F1
:104B780017FDA86000287FF466ACCBE7402B01D86E
:104B880040239EE4802B94BF80234FF4807398E4E5
:104B980023F4806355E500BFA06A0020A26A0020C4
:104BA8001A690020A36A0020536E002045D301082B
:104BB80063D70108516E00200DD5010899D201086C
:104BC800B1D20108306E0020316E00202DD40108CA
:104BD80048E80100546A002035C20108E9C4010808
:104BE80055D30108A0680600744B0020400D03004F
:104BF80089D2010871D2010829D20108D9D5010842
:104C0800348A0208F8A4020890D0030020680EF045
:104C1800C0FA20680EF0C3FA83460028F6D1FF21B7
:104C2800206818F067FFD9F80030CDF818B003F500
:104C3800FA788DF81CB0B74B1B6898457FF617AD0E
:104C480020680EF0ACFA0428F5D920680EF0A1FA15
:104C58008DF81800029020680EF09BFA8DF8190064
:104C6800824620680EF095FA8DF81A00834620686F
:104C78000EF08FFA8DF81B00804620680EF089FA36
:104C8800029A8DF81C00552A7FF4F1ACBAF1010F95
:104C98007FF4EDACBBF1FF0F7FF4E9ACAA287FF4F9
:104CA800E6AC8DF81B0006A81EF074FD80457FF465
:104CB800DEAC002307228DF841308DF842208DF8B4
:104CC80043309DF841309DF8432084F844309DF8E6
:104CD800423043EA0223A4F846308F4B01221A706F
:104CE8005A709A708D4B8E481B683B6000210126D4
:104CF800542285F8086823F0E0FD8A4A8A4D00238B
:104D0800C2F82C31894A2846136018F0EBF914F0E0
:104D1800B7FB6428B8BF642068653146304618F090
:104D280019FA834B5A79984652B1824B1B68642B07
:104D3800B8BF6423C5F89C303146022018F00AFA3F
:104D480098F805307C4E022B24D133689A0721D578
:104D5800B8F80030DFF8FC9199FBF3F39BB2642BB1
:104D6800B8BF6423C5F8E4300121032018F0F2F934
:104D780098F80530022B7DD1B8F8020099FBF0F0C5
:104D880080B26428B8BF6420C5F82C010121042032
:104D980018F0E0F90121062018F0DCF93B6840F62C
:104DA80002021A4214BF01210021072018F0D2F98B
:104DB8000121052018F0CEF939680820C1F3C01187
:104DC80018F0C8F931680920C1F3C00118F0C2F918
:104DD800316846F2A813C5F89432C1F380010A205D
:104DE80018F0B8F931680B20C1F3401118F0B2F986
:104DF80039680C20C1F3404118F0ACF939680D202E
:104E0800C1F3802118F0A6F939680E20C1F3C061FA
:104E180018F0A0F939680F20C1F3407118F09AF919
:104E28000121102018F096F90121132018F092F9A9
:104E3800424B1120197818F08DF9082018F034FE2B
:104E480023680546CBB118F039FE002818BF05467F
:104E58002946122018F07EF9002108200EF0BEFA2B
:104E6800374A137863F07F03137021B0BDEC028BCF
:104E7800BDE8F08F14F004FB82E71D46E8E7314BEC
:104E8800322283F81328FEF755BA2E4B312283F8C5
:104E98001928FEF758BA2B4B332283F81F28FEF740
:104EA8005BBA214603200EF099FA20461EF08EF8D0
:104EB80005241EF07DF8642013F05DF9013CF8D15B
:104EC80020461EF083F8FEF79ABA0C2A3EF61EAF6B
:104ED8004FF49B53D340DB077EF518AF1A4BFEF710
:104EE8000ABF1A4B1A48C5F8C43C0FF0E2FC01236C
:104EF80085F8D03CFF2385F8D13C0D2385F8CC3CC0
:104F0800134885F8D24C1E2385F8CD3C11F08EFE4F
:104F1800FFF751BA949B0020F06E00207C510020CE
:104F2800240500100000001098280020200500101B
:104F3800AA6B002004040010006B0020806F002082
:104F480099AA002000370020690E0008F08B02089B
:104F5800C443002040420F002DE9F04F2DED028B95
:104F68009BB0CDE902011AF0E3FFC84B1B7805930B
:104F7800002B41F0CC86C64F3B68580541F1C786E7
:104F8800C44C637A002B00F06C81C34EE36832682E
:104F9800D31A7C2B40F26581237CDFF830A3E260D2
:104FA800013323744FF024094FF47A78AAF13005BD
:104FB800484608F00DFF5AF8040FAB8A09F10109B9
:104FC80008FB00F05FFA89F990FBF3F000B208F0F3
:104FD800EDFEB9F1270FEBD1B04D302008F0F8FE07
:104FE80095ED450A22F06AFB00B208F0DFFE08F0F2
:104FF800E7FE237C990733D1E26841F288339A426D
:105008001BD9D5ED427AFDEEE77A102017EE908A8B
:105018004FF0640908F0DCFE98FBF9F528B208F0B7
:10502800C5FE212008F0D4FE09FB158383EAE3704E
:10503800A0EBE37000B208F0B9FE142008F0C8FE37
:10504800974BB3F904000A2390FBF3F008F0AEFE87
:105058001C2008F0BDFE002008F0A8FE08F0B0FEF5
:10506800237C5A0740F0D780022008F0B1FE8D4B10
:10507800D8696423323090FBF3F000B208F096FE52
:10508800894B0320B3F9065008F0A2FE874B1B6832
:105098005B074FF0050895FBF8F5ADB240F11C81B0
:1050A80020F0B2FB20B93B6813F0100F18BF0025A1
:1050B80028B208F07BFE3B68980739D5DFF81082E4
:1050C8007B4DB8F80020642353432A785200B3FB81
:1050D800F2F3C3F3032747EA03239FB2062008F03D
:1050E80077FE38B208F062FE94F82030012B40F0C9
:1050F800F980392008F06CFEB8F9000008F056FE77
:10510800282008F065FE6B4B18680A2390FBF3F023
:1051180000B208F04BFE042008F05AFE664B9B894B
:10512800002B00F0048117F04DFC00B208F03EFEA1
:10513800624B1B68190640F11381614FDFF89481B7
:105148003B6813F0020F1FD0112008F041FEB8F899
:1051580020005C4B4FF4F36510FB05F090FBF3F077
:1051680000B208F023FE192008F032FEB8F820003B
:10517800642210FB05F090FBF2F090FBF2F302FBC7
:10518800130000B208F012FE3868D8F8103010F09A
:10519800020518BF64254FF0010018BF93FBF5F511
:1051A80008F016FE28B208F001FE092008F010FEEB
:1051B800002008F0FBFDB8F8282098F80750B2F551
:1051C800967F09D9237C03F00F03072B04D842F2FA
:1051D8000F75954228BF1546052008F0F9FD28B23D
:1051E80008F0E4FD00230A930B933B689A0704D464
:1051F80094F82830012B40F09F80012384F8283050
:10520800D8F808300A93D8F80C300B930AA80FF096
:105218009DFA08F0D5FD237C282B22D13568002380
:105228003C261720237408F0D3FD4EF66020B5FB0A
:10523800F0F3B3FBF6F006FB1030000200B208F002
:10524800B5FD182008F0C4FD4FF47A70B5FBF0F5F1
:10525800B5FBF6F006FB105000B208F0A7FD08F009
:10526800AFFD94F82930002B00F09D80094E164DB3
:10527800344696F82A30042B00F29580DFE813F0C4
:105288007400800044025C028A0200BFCC8E0020B9
:10529800046B0020A0440020949B002074910020FF
:1052A80084030010906C00202C6800201C6F0020E4
:1052B800902800204C4E0020766B0020006B0020C8
:1052C80000A50020A0860100806967FF580400102F
:1052D800886B0020F8670020B74B9889B0FBF8F07E
:1052E80000B2E6E6B8F800206E235343152293FB7C
:1052F800F2F394F821201AB19BB22A7893FBF2F3C7
:105308003A209DB24FF0640808F062FDB5FBF8F74B
:1053180038B208F04BFD3B2008F05AFD08FB175047
:1053280080B205300A2590FBF5F000B2E6E6A34B03
:10533800186880F31000F8E6DFEDA16A94ED057AAD
:10534800D4ED067A27EE267A67EEA67ABDEEC77AFE
:10535800FDEEE77A8DED107ACDED117A10A856E7BB
:10536800984B10931193F9E7E06A0DF018FFD0B14C
:1053780000232363DDE9022301200FF0D7F978E742
:10538800D4E90E23DDE90201801A61EB030100294B
:1053980008BFB0F57A6F28D30FF0BAF9DDE9022318
:1053A80000200FF0C3F9884C884B94F8AB20D3F851
:1053B80000900493002A00F01A83D4F8AC30002B34
:1053C80000F0158394F8B030013B012B00F20F83F5
:1053D8007F4E4FF001080027F7E17B1CE06A23634A
:1053E8000DF0D7FE274487F84000E06A0DF0D7FE9D
:1053F80010B1276B012FF0DD236B012BD3DD94F85F
:10540800403013F07F0240F0798194F841308A2BC4
:1054180006D08E2B00F0F680DDE902230020ACE7F1
:105428006C4B1B681B06F7D5DFF8D4E1DFED6A7A11
:105438009EF8073084F85C30684BDFED696A93EDBD
:10544800457A9FED686A77EE277AF4EE667AF1EE90
:1054580010FA48BFF0EE667AFDEEE77A17EE903A5A
:10546800F0EE087A27EE277A84F85930C7EE067AE4
:105478001B1284F85A309FED5C7A77EE877AF4EE47
:10548800667AF1EE10FA48BFF0EE667AFDEEE77A3A
:1054980017EE903A84F85B30544B1B689F070BD487
:1054A8002D2384F85D30524B33672C2386F87430F3
:1054B800DDE90223022060E79EF80630DEF8088066
:1054C800404A98FBF2F7022B0CBF3323322305FB2B
:1054D80007814FF0060C84F85D30464BDEF80CA0CF
:1054E8000CFB01F14FF0640991FBF3F003FB101181
:1054F80091FBF9F186F84E10091286F84F109AFBC5
:10550800F2F105FB01A20CFB02FC01EB81019CFB03
:10551800F3F201EB810103FB12C352B293FBF9F3DF
:1055280086F853301B1202EB810286F85430BEF91C
:10553800203092B286F8512003EBC303120A86F892
:1055480052209B004FF47A7293FBF2F386F84930AD
:10555800C3F3072386F84A30274B1B8886F8553053
:1055680007EB87071B0A07EB870740B200EB8700AA
:1055780086F85630DEF8103093FBF9F91F4B09F521
:10558800FA7980B21FFA89F94FEAD87886F84C0080
:105598004FEADA7A000A86F857901B8886F84B801B
:1055A8004FEA192986F84D0086F850A086F85890D9
:1055B80086F85E3077E700BF766B0020846B0020AA
:1055C8008096184B80969800A0440020949B002059
:1055D8009C110020006B00200060EA4674910020B6
:1055E800000000000000C8420000F04200A50020B2
:1055F800E244002040420F00504E0020524E00204E
:10560800F8670020C84BC9491B8884F8772084F8BC
:105618007920DAB21B0A84F8932084F8943084F84D
:10562800892084F88A300A68D4F8A43094F82200D3
:10563800D21A4FF47A7343439A420DD30B68C4F8D5
:10564800A43094F8A830013B012B9FBF102384F8A5
:105658007730022384F87930B54BDFEDB66A1A68E3
:10566800B54B0A2192FBF1F284F89120121284F8CA
:105678009220B24A1B6892ED427A93FBF1F3C7EE8F
:10568800267A84F895301B1284F896309FEDAC7A10
:1056980077EE877A92ED457AFDEEE77A17EE903A43
:1056A800DFEDA87A77EE277A23EAE373FDEEE77A4F
:1056B80084F88F301B1284F8903017EE903AF0EE91
:1056C800087A27EE277A23EAE373C7EE267A84F866
:1056D80097301B1284F898309FED9B7A77EE877A83
:1056E800FDEEE77A17EE903A23EAE37384F89930EF
:1056F800964B23672C2384F87430D9E67F2B3FF42C
:105708008BAE0FF005F887E6D4E90E23DDE9020138
:10571800801A61EB03010B4600210246994241F2CF
:10572800873008BF9042BFF43EAE002384F8A9300A
:105738000320DDE9022334E6DDE90223002B08BF5C
:10574800B2F5FA6FFFF42FAE94F8741094F8A9200C
:1057580094F8AA3051B901331146E06A84F8AA30A6
:105768000DF020FDDDE9022304201AE6216FE06A2E
:10577800097801330A4484F8AA3084F8A9200DF086
:1057880011FD236F0133236794F87430013B84F8CB
:10579800743008E6D4E90E23DDE90201801A61EBD2
:1057A8000301002908BFB0F5FA6FAAD2FBE5D4F8C7
:1057B800AC000DF0EEFC049A83B27E2B12681FD168
:1057C80084F8B17084F8B2703770D4F8AC000DF07A
:1057D800E6FC01460028EAD194F8B730002B00F027
:1057E8008780637884F8B700302B40F08180A378F5
:1057F8005E09012E49D084F8B8000EF01DFD77E04F
:105808003278002AE1D194F8B11089B91B2B07D15D
:10581800D4F8AC000DF0C3FC40BB84F8B280D4E7E8
:105828000D2B23D184F8B1802370A4F8B410CCE7F1
:105838007D2B02D184F8B680C7E794F8B6E0BEF1B4
:10584800000F04D080F02000C3B284F8B6204A1CB0
:10585800D2B2092A84F8B12063540AD1B4F8B4202A
:10586800C2F1FF02934201D184F8B78086F8008024
:10587800ABE7082AA9D8B4F8B400034403EB132310
:1058880003F0FF03A4F8B4309FE703F00F0013F010
:10589800100321D02E4BE7782279A4F8C420A4F86D
:1058A800C8107A40D919C4F8BC30C4F8C01084F8BC
:1058B8000C2184F8B860C73B94F80C21254F0021CF
:1058C800D4F8BC60D4F8C050B5421AD131BBBB4241
:1058D80046D184F80D010BE094F8B82042B194F851
:1058E8000D21013202F00F0282421AD084F8B8303A
:1058F800194E94F8B20094F8208294F821320022CC
:10590800EDE213F8011B06F1010EBB4282EA010227
:10591800C4F8BCE031704FF00101D1D384F80C21F8
:10592800D5E70E4BC8E700BF886B0020949B00208A
:105938004C4E00200000C842846B00207491002067
:105948000000FA430060EA460000F04215450020D6
:105958006C450020A8440020F88C0208A3440020CD
:105968001A7894F80C319A424FF0000284F8B82063
:1059780003D0B4F9C41001203FE71548D4F8BC306F
:10598800C4F8C030C4F8BC0000F5AA7300F154068E
:1059980000F144011038C4F81061C4F81431A4F8B7
:1059A8001821A4F81C2106F041FF013006D1D4F8D3
:1059B8001021511CC4F8101102211170D4F81021C3
:1059C800C4F814210123C4F8106184F820328FE749
:1059D8006C45002004990968A1EB0901012940F2EE
:1059E800DE810AB184F82132002384F8B23094F8B9
:1059F8002432002B00F0A681D4F82832002B00F0C6
:105A0800A181049BD3F800A0D4F82C32AAEB03039D
:105A1800632B40F29781D4F8302294F83432D65C64
:105A2800F20724D510A80EF0BDFC109BB54F5A1CE8
:105A3800109241221A700A25B7F9021091FBF5F16C
:105A480010A889B20BF02CF8B7F9001091FBF5F10A
:105A580010A889B20BF024F8B7F9041091FBF5F1FE
:105A680010A889B20BF01CF810A80EF07DFCB30743
:105A780047D510A80EF096FCA34BDFF89C821D6852
:105A880015F0800500F0008498F80630002B00F02F
:105A9800F783012B00F0F683022B0CBF03250025AA
:105AA800D8F80810D8F80CB0B8F92090642399FBFE
:105AB800F3F9964B93ED428A109B1AAF5A1C47F89C
:105AC800282D47221A7038460AF0D6FF594638461C
